{
  "contractName": "Casino",
  "abi": [
    {
      "constant": true,
      "inputs": [],
      "name": "numberOfBets",
      "outputs": [
        {
          "name": "",
          "type": "uint256"
        }
      ],
      "payable": false,
      "stateMutability": "view",
      "type": "function"
    },
    {
      "constant": true,
      "inputs": [
        {
          "name": "",
          "type": "address"
        }
      ],
      "name": "playerInfo",
      "outputs": [
        {
          "name": "amountBet",
          "type": "uint256"
        },
        {
          "name": "numberSelected",
          "type": "uint256"
        }
      ],
      "payable": false,
      "stateMutability": "view",
      "type": "function"
    },
    {
      "constant": true,
      "inputs": [],
      "name": "owner",
      "outputs": [
        {
          "name": "",
          "type": "address"
        }
      ],
      "payable": false,
      "stateMutability": "view",
      "type": "function"
    },
    {
      "constant": true,
      "inputs": [],
      "name": "minimumBet",
      "outputs": [
        {
          "name": "",
          "type": "uint256"
        }
      ],
      "payable": false,
      "stateMutability": "view",
      "type": "function"
    },
    {
      "constant": true,
      "inputs": [],
      "name": "maxAmountOfBets",
      "outputs": [
        {
          "name": "",
          "type": "uint256"
        }
      ],
      "payable": false,
      "stateMutability": "view",
      "type": "function"
    },
    {
      "constant": true,
      "inputs": [
        {
          "name": "",
          "type": "uint256"
        }
      ],
      "name": "players",
      "outputs": [
        {
          "name": "",
          "type": "address"
        }
      ],
      "payable": false,
      "stateMutability": "view",
      "type": "function"
    },
    {
      "constant": true,
      "inputs": [],
      "name": "totalBet",
      "outputs": [
        {
          "name": "",
          "type": "uint256"
        }
      ],
      "payable": false,
      "stateMutability": "view",
      "type": "function"
    },
    {
      "inputs": [
        {
          "name": "_minimumBet",
          "type": "uint256"
        }
      ],
      "payable": false,
      "stateMutability": "nonpayable",
      "type": "constructor"
    },
    {
      "payable": true,
      "stateMutability": "payable",
      "type": "fallback"
    },
    {
      "constant": false,
      "inputs": [],
      "name": "kill",
      "outputs": [],
      "payable": false,
      "stateMutability": "nonpayable",
      "type": "function"
    },
    {
      "constant": true,
      "inputs": [
        {
          "name": "player",
          "type": "address"
        }
      ],
      "name": "checkPlayerExists",
      "outputs": [
        {
          "name": "",
          "type": "bool"
        }
      ],
      "payable": false,
      "stateMutability": "view",
      "type": "function"
    },
    {
      "constant": false,
      "inputs": [
        {
          "name": "numberSelected",
          "type": "uint256"
        }
      ],
      "name": "bet",
      "outputs": [],
      "payable": true,
      "stateMutability": "payable",
      "type": "function"
    },
    {
      "constant": false,
      "inputs": [],
      "name": "generateNumberWinner",
      "outputs": [],
      "payable": false,
      "stateMutability": "nonpayable",
      "type": "function"
    },
    {
      "constant": false,
      "inputs": [],
      "name": "resetData",
      "outputs": [],
      "payable": false,
      "stateMutability": "nonpayable",
      "type": "function"
    },
    {
      "constant": false,
      "inputs": [
        {
          "name": "numberWinner",
          "type": "uint256"
        }
      ],
      "name": "distributePrizes",
      "outputs": [],
      "payable": false,
      "stateMutability": "nonpayable",
      "type": "function"
    }
  ],
  "bytecode": "0x6080604052606460045534801561001557600080fd5b50604051602080610af283398101806040528101908080519060200190929190505050336000806101000a81548173ffffffffffffffffffffffffffffffffffffffff021916908373ffffffffffffffffffffffffffffffffffffffff16021790555060008114151561008a57806001819055505b50610a588061009a6000396000f3006080604052600436106100c5576000357c0100000000000000000000000000000000000000000000000000000000900463ffffffff1680630a50e361146100c75780632ca8c6d3146100de5780634081d9161461010957806341c0e1b514610164578063478c4e0e1461017b5780634b114691146101925780636ca3fc3b146101f05780637365870b1461021d5780638da5cb5b1461023d578063c38a8afd14610294578063e08a96cd146102bf578063f71d96cb146102ea578063fe5e185314610357575b005b3480156100d357600080fd5b506100dc610382565b005b3480156100ea57600080fd5b506100f36103a2565b6040518082815260200191505060405180910390f35b34801561011557600080fd5b5061014a600480360381019080803573ffffffffffffffffffffffffffffffffffffffff1690602001909291905050506103a8565b604051808215151515815260200191505060405180910390f35b34801561017057600080fd5b5061017961044c565b005b34801561018757600080fd5b506101906104dd565b005b34801561019e57600080fd5b506101d3600480360381019080803573ffffffffffffffffffffffffffffffffffffffff1690602001909291905050506104ff565b604051808381526020018281526020019250505060405180910390f35b3480156101fc57600080fd5b5061021b60048036038101908080359060200190929190505050610523565b005b61023b600480360381019080803590602001909291905050506107d0565b005b34801561024957600080fd5b50610252610942565b604051808273ffffffffffffffffffffffffffffffffffffffff1673ffffffffffffffffffffffffffffffffffffffff16815260200191505060405180910390f35b3480156102a057600080fd5b506102a9610967565b6040518082815260200191505060405180910390f35b3480156102cb57600080fd5b506102d461096d565b6040518082815260200191505060405180910390f35b3480156102f657600080fd5b5061031560048036038101908080359060200190929190505050610973565b604051808273ffffffffffffffffffffffffffffffffffffffff1673ffffffffffffffffffffffffffffffffffffffff16815260200191505060405180910390f35b34801561036357600080fd5b5061036c6109b1565b6040518082815260200191505060405180910390f35b60006001600a4381151561039257fe5b0601905061039f81610523565b50565b60025481565b600080600090505b60058054905081111515610441578273ffffffffffffffffffffffffffffffffffffffff166005828154811015156103e457fe5b9060005260206000200160009054906101000a900473ffffffffffffffffffffffffffffffffffffffff1673ffffffffffffffffffffffffffffffffffffffff1614156104345760019150610446565b80806001019150506103b0565b600091505b50919050565b6000809054906101000a900473ffffffffffffffffffffffffffffffffffffffff1673ffffffffffffffffffffffffffffffffffffffff163373ffffffffffffffffffffffffffffffffffffffff1614156104db576000809054906101000a900473ffffffffffffffffffffffffffffffffffffffff1673ffffffffffffffffffffffffffffffffffffffff16ff5b565b60006005816104ec91906109b7565b5060006003819055506000600281905550565b60066020528060005260406000206000915090508060000154908060010154905082565b61052b6109e3565b60008060008060009350600092505b600580549050831115156106eb57856006600060058681548110151561055c57fe5b9060005260206000200160009054906101000a900473ffffffffffffffffffffffffffffffffffffffff1673ffffffffffffffffffffffffffffffffffffffff1673ffffffffffffffffffffffffffffffffffffffff168152602001908152602001600020600101541415610653576005838154811015156105da57fe5b9060005260206000200160009054906101000a900473ffffffffffffffffffffffffffffffffffffffff16858560648110151561061357fe5b602002019073ffffffffffffffffffffffffffffffffffffffff16908173ffffffffffffffffffffffffffffffffffffffff168152505083806001019450505b6006600060058581548110151561066657fe5b9060005260206000200160009054906101000a900473ffffffffffffffffffffffffffffffffffffffff1673ffffffffffffffffffffffffffffffffffffffff1673ffffffffffffffffffffffffffffffffffffffff16815260200190815260200160002060008082016000905560018201600090555050828060010193505061053a565b60006005816106fa91906109b7565b50606460035481151561070957fe5b049150600090505b838110156107c857600073ffffffffffffffffffffffffffffffffffffffff16858260648110151561073f57fe5b602002015173ffffffffffffffffffffffffffffffffffffffff161415156107bb57848160648110151561076f57fe5b602002015173ffffffffffffffffffffffffffffffffffffffff166108fc839081150290604051600060405180830381858888f193505050501580156107b9573d6000803e3d6000fd5b505b8080600101915050610711565b505050505050565b6107d9336103a8565b1515156107e557600080fd5b600181101580156107f75750600a8111155b151561080257600080fd5b600154341015151561081357600080fd5b34600660003373ffffffffffffffffffffffffffffffffffffffff1673ffffffffffffffffffffffffffffffffffffffff1681526020019081526020016000206000018190555080600660003373ffffffffffffffffffffffffffffffffffffffff1673ffffffffffffffffffffffffffffffffffffffff1681526020019081526020016000206001018190555060026000815480929190600101919050555060053390806001815401808255809150509060018203906000526020600020016000909192909190916101000a81548173ffffffffffffffffffffffffffffffffffffffff021916908373ffffffffffffffffffffffffffffffffffffffff160217905550503460036000828254019250508190555060045460025410151561093f5761093e610382565b5b50565b6000809054906101000a900473ffffffffffffffffffffffffffffffffffffffff1681565b60015481565b60045481565b60058181548110151561098257fe5b906000526020600020016000915054906101000a900473ffffffffffffffffffffffffffffffffffffffff1681565b60035481565b8154818355818111156109de578183600052602060002091820191016109dd9190610a07565b5b505050565b610c8060405190810160405280606490602082028038833980820191505090505090565b610a2991905b80821115610a25576000816000905550600101610a0d565b5090565b905600a165627a7a723058201378aba234e3fc936a02bb31e051d959c4e144bc24f84531895c4c3e40f1b9ed0029",
  "source": "pragma solidity ^0.4.20;\n\n\ncontract Casino {\n    address public owner;\n    uint public minimumBet;\n    uint public numberOfBets;\n    uint public totalBet;\n    uint public maxAmountOfBets = 100;\n    address[] public players;\n\n    struct Player {\n        uint amountBet;\n        uint numberSelected;\n    }\n\n    mapping(address => Player) public playerInfo;\n\n    function() public payable {}\n\n    constructor(uint _minimumBet) public {\n        owner = msg.sender;\n        if (_minimumBet != 0) minimumBet = _minimumBet;\n    }\n\n    function kill() public {\n        if (msg.sender == owner) selfdestruct(owner);\n    }\n\n    function checkPlayerExists(address player) public constant returns(bool) {\n        for (uint i = 0; i <= players.length; i++) {\n            if (players[i] == player) return true;\n        }\n        return false;\n    }\n\n    function bet(uint numberSelected) public payable {\n        require(!checkPlayerExists(msg.sender));\n        require(numberSelected >= 1 && numberSelected <= 10);\n        require(msg.value >= minimumBet);\n\n        playerInfo[msg.sender].amountBet = msg.value;\n        playerInfo[msg.sender].numberSelected = numberSelected;\n        numberOfBets++;\n        players.push(msg.sender);\n        totalBet += msg.value;\n\n        if (numberOfBets >= maxAmountOfBets) generateNumberWinner();\n    }\n\n    function generateNumberWinner() public {\n        uint numberGenerated = block.number % 10 + 1;\n        distributePrizes(numberGenerated);\n    }\n\n    function resetData() public {\n       players.length = 0; // Delete all the players array\n       totalBet = 0;\n       numberOfBets = 0;\n    }\n\n    function distributePrizes(uint numberWinner) public {\n        address[100] memory winners;\n        uint count = 0;\n        for (uint i = 0; i <= players.length; i++){\n            if (playerInfo[players[i]].numberSelected == numberWinner) {\n                winners[count] = players[i];\n                count++;\n            }\n            delete playerInfo[players[i]];\n        }\n        players.length = 0;\n        uint winnerEtherAmount = totalBet/winners.length;\n        for (uint j=0; j < count; j++){\n            if (winners[j] != address(0))\n                winners[j].transfer(winnerEtherAmount);\n        }\n    }\n}\n",
  "sourcePath": "/home/desciple/Amaal/casino-ethereum/contracts/Casino.sol",
  "compiler": {
    "name": "solc",
    "version": "0.4.24+commit.e67f0147.Emscripten.clang"
  },
  "schemaVersion": "2.0.1",
  "updatedAt": "2018-08-04T10:08:49.144Z"
}